:030000000208955E
:0C089500787FE4F6D8FD7581130208DCC2
:0B0A2D003F065B4F666D7D077F6F404A
:0C0A200002120000020A000002080000A0
:0A09F800F583E493F5A07F057E006F
:100A0200D3EF9400EE940040147D6E7C00ED1D70D7
:0D0A1200011CED4C70F7EF1F70E61E80E335
:010A1F0022B4
:1009C400758911758C4C758AD0D2AFD2A9D28C7529
:1009D4008DDC758BDCD2AFD2ABD28E20B00963092B
:1009E400FF6308FF30B0FD20B1F1E4F512F51320E8
:0409F400B1E980FBEA
:03000B0002097671
:10097600C0E0C0D0758C4C758AD00511E5117002A7
:100986000510641445107031F510F511C3E5139484
:100996001EE51294005020E509450870100513E580
:1009A6001370020512750A00750B00800C050BE525
:0E09B6000B7006050A8002B2B5D0D0D0E03238
:03001B00020800D8
:10080000C0E0C0F0C083C082C0D075D000C000C0BE
:1008100004C005C006C007758DDC758BDCAE12AF59
:10082000137C007D0A1209218E0C8F0DAE12AF13BE
:100830007C007D0A1209218C0E8D0FC2B3742D2508
:100840000DF582740A350C1209F8D2B375A0FFC2F7
:10085000B4742D250FF582740A350E1209F8D2B43E
:1008600075A0FFC2B2AE0AAF0B7C007D0A1209214F
:10087000742D2DF582740A3C1209F8D2B275A0FFCE
:10088000D007D006D005D004D000D0D0D082D083FD
:05089000D0F0D0E032C1
:1008A1000209C4E493A3F8E493A34003F68001F2A0
:1008B10008DFF48029E493A3F85407240CC8C33358
:1008C100C4540F4420C8834004F456800146F6DF27
:1008D100E4800B0102040810204080900A20E47E8D
:1008E100019360BCA3FF543F30E509541FFEE4931C
:1008F100A360010ECF54C025E060A840B8E493A3E3
:10090100FAE493A3F8E493A3C8C582C8CAC583CA0D
:10091100F0A3C8C582C8CAC583CADFE9DEE780BEC5
:010A2C0000C9
:10092100BC000BBE0029EF8DF084FFADF022E4CCBA
:10093100F875F008EF2FFFEE33FEEC33FCEE9DEC83
:10094100984005FCEE9DFE0FD5F0E9E4CEFD22EDC9
:10095100F8F5F0EE8420D21CFEADF075F008EF2F13
:10096100FFED33FD4007985006D5F0F222C398FD04
:050971000FD5F0EA22A1
:00000001FF
